:100000000A128A11D82FFF0000308A007F08820769
:1000100008280A128A11182F0A128A11CE2D0A12E4
:100020008A11D62D0A128A11DE2D0A128A11FB2D91
:100030000A128A11EB2D00308A000408840A820714
:0400400000347034E4
:100B90000134043410340A340D340734831603133B
:100BA00011141118D42DD52DD12D0800831603133F
:100BB00011151119DC2DDD2DD92D080070088312B7
:100BC000031393008C118C1DE62DE72DE32D831666
:100BD00003131108080083160313911483160313DB
:100BE000941DF32DF42DEE2D831203138C1DF92D7E
:100BF000FA2DEE2D0800831603139115141C012EF7
:100C0000022EFE2D831203131308F1008316031323
:100C100014180B2E0C2E062E7008031D102E112EEC
:100C2000132E9116142E91121116111A182E192E18
:100C3000152E71080800F2008312031339080A12F6
:100C40008A1103200A128A1171087038F000831289
:100C500003133B080A128A1103200A128A11033077
:100C6000F000831203133B080A128A1103200A12B0
:100C70008A117208F000831203133B080A128A11CA
:100C800003200A128A11831203133D080A128A11E3
:100C900003200A128A110800F50083120313390891
:100CA0000A128A1103200A128A1174087038F0009F
:100CB000831203133B080A128A1103200A128A11B5
:100CC000F001F00A831203133B080A128A11032071
:100CD0000A128A117508F000831203133B080A12E6
:100CE0008A1103200A128A11831203133D080A1283
:100CF0008A1103200A128A110800F30083120313D9
:100D000039080A128A1103200A128A1173087038EE
:100D1000F000831203133B080A128A1103200A12FF
:100D20008A11F001831203133B080A128A1103206F
:100D30000A128A11831203133A080A128A11032035
:100D40000A128A1173087138F000831203133B08EA
:100D50000A128A1103200A128A11F0018312031366
:100D60003C080A128A1103200A128A11F200831227
:100D700003133D080A128A1103200A128A1172080D
:100D800008000E3083120313B7000130A300313086
:100D9000A2002D30A1000030A0000030A7000130DB
:100DA000A6008630A500A030A40038080A128A11D7
:100DB00003200A128A110E30F1000F300A128A1134
:100DC0001B260A128A110E30F40000300A128A1112
:100DD0004C260A128A11831203133708F4003708CD
:100DE0000A128A117D260A128A1183120313B40093
:100DF00003300310B40DFF3E031DF92E0310340D14
:100E00000A128A114C260A128A111A30831203130D
:100E1000B6005E30B5006D30B400B40B0D2FB50BCD
:100E20000D2FB60B0D2F142FEB2E0A128A1100284E
:100E30008312031394169415141194101410803017
:100E4000831603139400FF3083120313A800FF30AE
:100E5000A900FF30AA00FF30AB002408AC00250831
:100E6000AD002608AE002708AF0002300310AC0D1D
:100E7000AD0DAE0DAF0DFF3E031D362F2F08F30055
:100E80002E08F2002D08F1002C08F0002308F700CE
:100E90002208F6002108F5002008F4000A128A1141
:100EA00074270A128A11700883120313A8077108A5
:100EB0000318710F5C2F5D2FA90772080318720FBA
:100EC000622F632FAA0773080318730AAB072B0856
:100ED000A3002A08A2002908A1002808A0002008D1
:100EE00083160313930008000030FC000030FB0061
:100EF0000030FA000030F9007308720471047004C5
:100F00000319832F842FCF2F0130FD00922F013042
:100F1000F8000310F00DF10DF20DF30DF80B892F11
:100F20000130FD07F31F952F962F872F0130F80012
:100F30000310F90DFA0DFB0DFC0DF80B982F73083B
:100F40007702031DAD2F72087602031DAD2F7108C5
:100F50007502031DAD2F70087402031CB02FB12F52
:100F6000C02F7008F4027108031C710FF50272089B
:100F7000031C720FF6027308031C730FF702791437
:100F800001300310F30CF20CF10CF00CFF3E031DCA
:100F9000C12F0130FD02031DCE2FCF2F962F7C08CD
:100FA000F3007B08F2007A08F1007908F0000800ED
:100FB0000A128A11C8250A128A11B8000A128A1167
:100FC000C9250A128A11B9000A128A11CA250A1201
:100FD0008A11BA000A128A11CB250A128A11BB00A3
:100FE0000A128A11CC250A128A11BC000A128A112F
:100FF000CD250A128A11BD0083010A128A11C12E61
:02400E00F23F7F
:00000001FF
